{
  "_format": "hh-sol-artifact-1",
  "contractName": "blochealth",
  "sourceName": "contracts/blochealth.sol",
  "abi": [
    {
      "inputs": [],
      "stateMutability": "nonpayable",
      "type": "constructor"
    },
    {
      "inputs": [
        {
          "internalType": "string",
          "name": "_id",
          "type": "string"
        }
      ],
      "name": "deleteHealthRecord",
      "outputs": [],
      "stateMutability": "nonpayable",
      "type": "function"
    },
    {
      "inputs": [],
      "name": "getAllHealthRecords",
      "outputs": [
        {
          "components": [
            {
              "internalType": "string",
              "name": "code",
              "type": "string"
            },
            {
              "internalType": "string",
              "name": "diagnosis",
              "type": "string"
            },
            {
              "internalType": "string",
              "name": "examination",
              "type": "string"
            },
            {
              "internalType": "string",
              "name": "organizationId",
              "type": "string"
            },
            {
              "internalType": "string",
              "name": "patientId",
              "type": "string"
            },
            {
              "internalType": "uint256",
              "name": "creationTime",
              "type": "uint256"
            },
            {
              "internalType": "string",
              "name": "id",
              "type": "string"
            }
          ],
          "internalType": "struct blochealth.HealthRecord[]",
          "name": "",
          "type": "tuple[]"
        }
      ],
      "stateMutability": "view",
      "type": "function"
    },
    {
      "inputs": [
        {
          "internalType": "string",
          "name": "id",
          "type": "string"
        }
      ],
      "name": "getHealthRecord",
      "outputs": [
        {
          "internalType": "string",
          "name": "",
          "type": "string"
        },
        {
          "internalType": "string",
          "name": "",
          "type": "string"
        },
        {
          "internalType": "string",
          "name": "",
          "type": "string"
        },
        {
          "internalType": "string",
          "name": "",
          "type": "string"
        },
        {
          "internalType": "string",
          "name": "",
          "type": "string"
        },
        {
          "internalType": "uint256",
          "name": "",
          "type": "uint256"
        },
        {
          "internalType": "string",
          "name": "",
          "type": "string"
        }
      ],
      "stateMutability": "view",
      "type": "function"
    },
    {
      "inputs": [
        {
          "internalType": "uint256",
          "name": "",
          "type": "uint256"
        }
      ],
      "name": "healthRecordArray",
      "outputs": [
        {
          "internalType": "string",
          "name": "code",
          "type": "string"
        },
        {
          "internalType": "string",
          "name": "diagnosis",
          "type": "string"
        },
        {
          "internalType": "string",
          "name": "examination",
          "type": "string"
        },
        {
          "internalType": "string",
          "name": "organizationId",
          "type": "string"
        },
        {
          "internalType": "string",
          "name": "patientId",
          "type": "string"
        },
        {
          "internalType": "uint256",
          "name": "creationTime",
          "type": "uint256"
        },
        {
          "internalType": "string",
          "name": "id",
          "type": "string"
        }
      ],
      "stateMutability": "view",
      "type": "function"
    },
    {
      "inputs": [
        {
          "internalType": "uint256",
          "name": "",
          "type": "uint256"
        }
      ],
      "name": "healthRecords",
      "outputs": [
        {
          "internalType": "string",
          "name": "code",
          "type": "string"
        },
        {
          "internalType": "string",
          "name": "diagnosis",
          "type": "string"
        },
        {
          "internalType": "string",
          "name": "examination",
          "type": "string"
        },
        {
          "internalType": "string",
          "name": "organizationId",
          "type": "string"
        },
        {
          "internalType": "string",
          "name": "patientId",
          "type": "string"
        },
        {
          "internalType": "uint256",
          "name": "creationTime",
          "type": "uint256"
        },
        {
          "internalType": "string",
          "name": "id",
          "type": "string"
        }
      ],
      "stateMutability": "view",
      "type": "function"
    },
    {
      "inputs": [],
      "name": "removeMe",
      "outputs": [
        {
          "internalType": "string",
          "name": "code",
          "type": "string"
        },
        {
          "internalType": "string",
          "name": "diagnosis",
          "type": "string"
        },
        {
          "internalType": "string",
          "name": "examination",
          "type": "string"
        },
        {
          "internalType": "string",
          "name": "organizationId",
          "type": "string"
        },
        {
          "internalType": "string",
          "name": "patientId",
          "type": "string"
        },
        {
          "internalType": "uint256",
          "name": "creationTime",
          "type": "uint256"
        },
        {
          "internalType": "string",
          "name": "id",
          "type": "string"
        }
      ],
      "stateMutability": "view",
      "type": "function"
    },
    {
      "inputs": [
        {
          "internalType": "string",
          "name": "_code",
          "type": "string"
        },
        {
          "internalType": "string",
          "name": "_diagnosis",
          "type": "string"
        },
        {
          "internalType": "string",
          "name": "_examination",
          "type": "string"
        },
        {
          "internalType": "string",
          "name": "_organizationId",
          "type": "string"
        },
        {
          "internalType": "string",
          "name": "_patientId",
          "type": "string"
        },
        {
          "internalType": "uint256",
          "name": "_creationTime",
          "type": "uint256"
        },
        {
          "internalType": "string",
          "name": "_id",
          "type": "string"
        }
      ],
      "name": "setHealthRecord",
      "outputs": [],
      "stateMutability": "nonpayable",
      "type": "function"
    },
    {
      "inputs": [
        {
          "internalType": "string",
          "name": "_code",
          "type": "string"
        },
        {
          "internalType": "string",
          "name": "_diagnosis",
          "type": "string"
        },
        {
          "internalType": "string",
          "name": "_examination",
          "type": "string"
        },
        {
          "internalType": "string",
          "name": "_organizationId",
          "type": "string"
        },
        {
          "internalType": "string",
          "name": "_patientId",
          "type": "string"
        },
        {
          "internalType": "uint256",
          "name": "_creationTime",
          "type": "uint256"
        },
        {
          "internalType": "string",
          "name": "_id",
          "type": "string"
        }
      ],
      "name": "updateHealthRecord",
      "outputs": [],
      "stateMutability": "nonpayable",
      "type": "function"
    }
  ],
  "bytecode": "0x608060405234801561001057600080fd5b50336000806101000a81548173ffffffffffffffffffffffffffffffffffffffff021916908373ffffffffffffffffffffffffffffffffffffffff160217905550612a4f806100606000396000f3fe608060405234801561001057600080fd5b50600436106100885760003560e01c806382e3e7ef1161005b57806382e3e7ef146100ff5780639d08f4a914610135578063b3eb9e0f14610159578063b665c0d31461018f57610088565b80631c1514791461008d5780633ab6f443146100ab578063707301e9146100c75780637b2f6bbe146100e3575b600080fd5b6100956101c5565b6040516100a291906122fb565b60405180910390f35b6100c560048036038101906100c09190612492565b61059a565b005b6100e160048036038101906100dc9190612492565b61081a565b005b6100fd60048036038101906100f891906125dc565b610ade565b005b610119600480360381019061011491906125dc565b610fb6565b60405161012c979695949392919061267e565b60405180910390f35b61013d611504565b604051610150979695949392919061267e565b60405180910390f35b610173600480360381019061016e9190612717565b611864565b604051610186979695949392919061267e565b60405180910390f35b6101a960048036038101906101a49190612717565b611be6565b6040516101bc979695949392919061267e565b60405180910390f35b60606009805480602002602001604051908101604052809291908181526020016000905b8282101561059157838290600052602060002090600702016040518060e001604052908160008201805461021c90612773565b80601f016020809104026020016040519081016040528092919081815260200182805461024890612773565b80156102955780601f1061026a57610100808354040283529160200191610295565b820191906000526020600020905b81548152906001019060200180831161027857829003601f168201915b505050505081526020016001820180546102ae90612773565b80601f01602080910402602001604051908101604052809291908181526020018280546102da90612773565b80156103275780601f106102fc57610100808354040283529160200191610327565b820191906000526020600020905b81548152906001019060200180831161030a57829003601f168201915b5050505050815260200160028201805461034090612773565b80601f016020809104026020016040519081016040528092919081815260200182805461036c90612773565b80156103b95780601f1061038e576101008083540402835291602001916103b9565b820191906000526020600020905b81548152906001019060200180831161039c57829003601f168201915b505050505081526020016003820180546103d290612773565b80601f01602080910402602001604051908101604052809291908181526020018280546103fe90612773565b801561044b5780601f106104205761010080835404028352916020019161044b565b820191906000526020600020905b81548152906001019060200180831161042e57829003601f168201915b5050505050815260200160048201805461046490612773565b80601f016020809104026020016040519081016040528092919081815260200182805461049090612773565b80156104dd5780601f106104b2576101008083540402835291602001916104dd565b820191906000526020600020905b8154815290600101906020018083116104c057829003601f168201915b505050505081526020016005820154815260200160068201805461050090612773565b80601f016020809104026020016040519081016040528092919081815260200182805461052c90612773565b80156105795780601f1061054e57610100808354040283529160200191610579565b820191906000526020600020905b81548152906001019060200180831161055c57829003601f168201915b505050505081525050815260200190600101906101e9565b50505050905090565b60008054906101000a900473ffffffffffffffffffffffffffffffffffffffff1673ffffffffffffffffffffffffffffffffffffffff163373ffffffffffffffffffffffffffffffffffffffff16146105f257600080fd5b60006040518060e0016040528089815260200188815260200187815260200186815260200185815260200184815260200183815250905080600860008581526020019081526020016000206000820151816000019080519060200190610659929190611f58565b506020820151816001019080519060200190610676929190611f58565b506040820151816002019080519060200190610693929190611f58565b5060608201518160030190805190602001906106b0929190611f58565b5060808201518160040190805190602001906106cd929190611f58565b5060a0820151816005015560c08201518160060190805190602001906106f4929190611f58565b5090505060096040518060e001604052808a81526020018981526020018881526020018781526020018681526020018581526020018481525090806001815401808255809150506001900390600052602060002090600702016000909190919091506000820151816000019080519060200190610772929190611f58565b50602082015181600101908051906020019061078f929190611f58565b5060408201518160020190805190602001906107ac929190611f58565b5060608201518160030190805190602001906107c9929190611f58565b5060808201518160040190805190602001906107e6929190611f58565b5060a0820151816005015560c082015181600601908051906020019061080d929190611f58565b5050505050505050505050565b60008054906101000a900473ffffffffffffffffffffffffffffffffffffffff1673ffffffffffffffffffffffffffffffffffffffff163373ffffffffffffffffffffffffffffffffffffffff161461087257600080fd5b60005b600980549050811015610a99578160405160200161089391906127e1565b60405160208183030381529060405280519060200120600982815481106108bd576108bc6127f8565b5b90600052602060002090600702016006016040516020016108de91906128bb565b604051602081830303815290604052805190602001201415610a8657876009828154811061090f5761090e6127f8565b5b90600052602060002090600702016000019080519060200190610933929190611f58565b508660098281548110610949576109486127f8565b5b9060005260206000209060070201600101908051906020019061096d929190611f58565b508560098281548110610983576109826127f8565b5b906000526020600020906007020160020190805190602001906109a7929190611f58565b5084600982815481106109bd576109bc6127f8565b5b906000526020600020906007020160030190805190602001906109e1929190611f58565b5083600982815481106109f7576109f66127f8565b5b90600052602060002090600702016004019080519060200190610a1b929190611f58565b508260098281548110610a3157610a306127f8565b5b9060005260206000209060070201600501819055508160098281548110610a5b57610a5a6127f8565b5b90600052602060002090600702016006019080519060200190610a7f929190611f58565b5050610ad5565b8080610a9190612901565b915050610875565b506040517f08c379a0000000000000000000000000000000000000000000000000000000008152600401610acc90612996565b60405180910390fd5b50505050505050565b60008054906101000a900473ffffffffffffffffffffffffffffffffffffffff1673ffffffffffffffffffffffffffffffffffffffff163373ffffffffffffffffffffffffffffffffffffffff1614610b3657600080fd5b60005b600980549050811015610f7a5781604051602001610b5791906127e1565b6040516020818303038152906040528051906020012060098281548110610b8157610b806127f8565b5b9060005260206000209060070201600601604051602001610ba291906128bb565b604051602081830303815290604052805190602001201415610f675760098181548110610bd257610bd16127f8565b5b906000526020600020906007020160016000820181600001908054610bf690612773565b610c01929190611fde565b506001820181600101908054610c1690612773565b610c21929190611fde565b506002820181600201908054610c3690612773565b610c41929190611fde565b506003820181600301908054610c5690612773565b610c61929190611fde565b506004820181600401908054610c7690612773565b610c81929190611fde565b50600582015481600501556006820181600601908054610ca090612773565b610cab929190611fde565b5090505060096001600980549050610cc391906129b6565b81548110610cd457610cd36127f8565b5b906000526020600020906007020160098281548110610cf657610cf56127f8565b5b90600052602060002090600702016000820181600001908054610d1890612773565b610d23929190611fde565b506001820181600101908054610d3890612773565b610d43929190611fde565b506002820181600201908054610d5890612773565b610d63929190611fde565b506003820181600301908054610d7890612773565b610d83929190611fde565b506004820181600401908054610d9890612773565b610da3929190611fde565b50600582015481600501556006820181600601908054610dc290612773565b610dcd929190611fde565b50905050600160096001600980549050610de791906129b6565b81548110610df857610df76127f8565b5b90600052602060002090600702016000820181600001908054610e1a90612773565b610e25929190611fde565b506001820181600101908054610e3a90612773565b610e45929190611fde565b506002820181600201908054610e5a90612773565b610e65929190611fde565b506003820181600301908054610e7a90612773565b610e85929190611fde565b506004820181600401908054610e9a90612773565b610ea5929190611fde565b50600582015481600501556006820181600601908054610ec490612773565b610ecf929190611fde565b509050506009805480610ee557610ee46129ea565b5b600190038181906000526020600020906007020160008082016000610f0a919061206b565b600182016000610f1a919061206b565b600282016000610f2a919061206b565b600382016000610f3a919061206b565b600482016000610f4a919061206b565b6005820160009055600682016000610f62919061206b565b505090555b8080610f7290612901565b915050610b39565b506040517f08c379a0000000000000000000000000000000000000000000000000000000008152600401610fad90612996565b60405180910390fd5b60608060608060606000606060005b6009805490508110156114bd5788604051602001610fe391906127e1565b604051602081830303815290604052805190602001206009828154811061100d5761100c6127f8565b5b906000526020600020906007020160060160405160200161102e91906128bb565b6040516020818303038152906040528051906020012014156114aa576009818154811061105e5761105d6127f8565b5b906000526020600020906007020160000160098281548110611083576110826127f8565b5b9060005260206000209060070201600101600983815481106110a8576110a76127f8565b5b9060005260206000209060070201600201600984815481106110cd576110cc6127f8565b5b9060005260206000209060070201600301600985815481106110f2576110f16127f8565b5b906000526020600020906007020160040160098681548110611117576111166127f8565b5b9060005260206000209060070201600501546009878154811061113d5761113c6127f8565b5b906000526020600020906007020160060186805461115a90612773565b80601f016020809104026020016040519081016040528092919081815260200182805461118690612773565b80156111d35780601f106111a8576101008083540402835291602001916111d3565b820191906000526020600020905b8154815290600101906020018083116111b657829003601f168201915b505050505096508580546111e690612773565b80601f016020809104026020016040519081016040528092919081815260200182805461121290612773565b801561125f5780601f106112345761010080835404028352916020019161125f565b820191906000526020600020905b81548152906001019060200180831161124257829003601f168201915b5050505050955084805461127290612773565b80601f016020809104026020016040519081016040528092919081815260200182805461129e90612773565b80156112eb5780601f106112c0576101008083540402835291602001916112eb565b820191906000526020600020905b8154815290600101906020018083116112ce57829003601f168201915b505050505094508380546112fe90612773565b80601f016020809104026020016040519081016040528092919081815260200182805461132a90612773565b80156113775780601f1061134c57610100808354040283529160200191611377565b820191906000526020600020905b81548152906001019060200180831161135a57829003601f168201915b5050505050935082805461138a90612773565b80601f01602080910402602001604051908101604052809291908181526020018280546113b690612773565b80156114035780601f106113d857610100808354040283529160200191611403565b820191906000526020600020905b8154815290600101906020018083116113e657829003601f168201915b5050505050925080805461141690612773565b80601f016020809104026020016040519081016040528092919081815260200182805461144290612773565b801561148f5780601f106114645761010080835404028352916020019161148f565b820191906000526020600020905b81548152906001019060200180831161147257829003601f168201915b505050505090509750975097509750975097509750506114f9565b80806114b590612901565b915050610fc5565b506040517f08c379a00000000000000000000000000000000000000000000000000000000081526004016114f090612996565b60405180910390fd5b919395979092949650565b600180600001805461151590612773565b80601f016020809104026020016040519081016040528092919081815260200182805461154190612773565b801561158e5780601f106115635761010080835404028352916020019161158e565b820191906000526020600020905b81548152906001019060200180831161157157829003601f168201915b5050505050908060010180546115a390612773565b80601f01602080910402602001604051908101604052809291908181526020018280546115cf90612773565b801561161c5780601f106115f15761010080835404028352916020019161161c565b820191906000526020600020905b8154815290600101906020018083116115ff57829003601f168201915b50505050509080600201805461163190612773565b80601f016020809104026020016040519081016040528092919081815260200182805461165d90612773565b80156116aa5780601f1061167f576101008083540402835291602001916116aa565b820191906000526020600020905b81548152906001019060200180831161168d57829003601f168201915b5050505050908060030180546116bf90612773565b80601f01602080910402602001604051908101604052809291908181526020018280546116eb90612773565b80156117385780601f1061170d57610100808354040283529160200191611738565b820191906000526020600020905b81548152906001019060200180831161171b57829003601f168201915b50505050509080600401805461174d90612773565b80601f016020809104026020016040519081016040528092919081815260200182805461177990612773565b80156117c65780601f1061179b576101008083540402835291602001916117c6565b820191906000526020600020905b8154815290600101906020018083116117a957829003601f168201915b5050505050908060050154908060060180546117e190612773565b80601f016020809104026020016040519081016040528092919081815260200182805461180d90612773565b801561185a5780601f1061182f5761010080835404028352916020019161185a565b820191906000526020600020905b81548152906001019060200180831161183d57829003601f168201915b5050505050905087565b6009818154811061187457600080fd5b906000526020600020906007020160009150905080600001805461189790612773565b80601f01602080910402602001604051908101604052809291908181526020018280546118c390612773565b80156119105780601f106118e557610100808354040283529160200191611910565b820191906000526020600020905b8154815290600101906020018083116118f357829003601f168201915b50505050509080600101805461192590612773565b80601f016020809104026020016040519081016040528092919081815260200182805461195190612773565b801561199e5780601f106119735761010080835404028352916020019161199e565b820191906000526020600020905b81548152906001019060200180831161198157829003601f168201915b5050505050908060020180546119b390612773565b80601f01602080910402602001604051908101604052809291908181526020018280546119df90612773565b8015611a2c5780601f10611a0157610100808354040283529160200191611a2c565b820191906000526020600020905b815481529060010190602001808311611a0f57829003601f168201915b505050505090806003018054611a4190612773565b80601f0160208091040260200160405190810160405280929190818152602001828054611a6d90612773565b8015611aba5780601f10611a8f57610100808354040283529160200191611aba565b820191906000526020600020905b815481529060010190602001808311611a9d57829003601f168201915b505050505090806004018054611acf90612773565b80601f0160208091040260200160405190810160405280929190818152602001828054611afb90612773565b8015611b485780601f10611b1d57610100808354040283529160200191611b48565b820191906000526020600020905b815481529060010190602001808311611b2b57829003601f168201915b505050505090806005015490806006018054611b6390612773565b80601f0160208091040260200160405190810160405280929190818152602001828054611b8f90612773565b8015611bdc5780601f10611bb157610100808354040283529160200191611bdc565b820191906000526020600020905b815481529060010190602001808311611bbf57829003601f168201915b5050505050905087565b6008602052806000526040600020600091509050806000018054611c0990612773565b80601f0160208091040260200160405190810160405280929190818152602001828054611c3590612773565b8015611c825780601f10611c5757610100808354040283529160200191611c82565b820191906000526020600020905b815481529060010190602001808311611c6557829003601f168201915b505050505090806001018054611c9790612773565b80601f0160208091040260200160405190810160405280929190818152602001828054611cc390612773565b8015611d105780601f10611ce557610100808354040283529160200191611d10565b820191906000526020600020905b815481529060010190602001808311611cf357829003601f168201915b505050505090806002018054611d2590612773565b80601f0160208091040260200160405190810160405280929190818152602001828054611d5190612773565b8015611d9e5780601f10611d7357610100808354040283529160200191611d9e565b820191906000526020600020905b815481529060010190602001808311611d8157829003601f168201915b505050505090806003018054611db390612773565b80601f0160208091040260200160405190810160405280929190818152602001828054611ddf90612773565b8015611e2c5780601f10611e0157610100808354040283529160200191611e2c565b820191906000526020600020905b815481529060010190602001808311611e0f57829003601f168201915b505050505090806004018054611e4190612773565b80601f0160208091040260200160405190810160405280929190818152602001828054611e6d90612773565b8015611eba5780601f10611e8f57610100808354040283529160200191611eba565b820191906000526020600020905b815481529060010190602001808311611e9d57829003601f168201915b505050505090806005015490806006018054611ed590612773565b80601f0160208091040260200160405190810160405280929190818152602001828054611f0190612773565b8015611f4e5780601f10611f2357610100808354040283529160200191611f4e565b820191906000526020600020905b815481529060010190602001808311611f3157829003601f168201915b5050505050905087565b828054611f6490612773565b90600052602060002090601f016020900481019282611f865760008555611fcd565b82601f10611f9f57805160ff1916838001178555611fcd565b82800160010185558215611fcd579182015b82811115611fcc578251825591602001919060010190611fb1565b5b509050611fda91906120ab565b5090565b828054611fea90612773565b90600052602060002090601f01602090048101928261200c576000855561205a565b82601f1061201d578054855561205a565b8280016001018555821561205a57600052602060002091601f016020900482015b8281111561205957825482559160010191906001019061203e565b5b50905061206791906120ab565b5090565b50805461207790612773565b6000825580601f1061208957506120a8565b601f0160209004906000526020600020908101906120a791906120ab565b5b50565b5b808211156120c45760008160009055506001016120ac565b5090565b600081519050919050565b600082825260208201905092915050565b6000819050602082019050919050565b600081519050919050565b600082825260208201905092915050565b60005b8381101561212e578082015181840152602081019050612113565b8381111561213d576000848401525b50505050565b6000601f19601f8301169050919050565b600061215f826120f4565b61216981856120ff565b9350612179818560208601612110565b61218281612143565b840191505092915050565b6000819050919050565b6121a08161218d565b82525050565b600060e08301600083015184820360008601526121c38282612154565b915050602083015184820360208601526121dd8282612154565b915050604083015184820360408601526121f78282612154565b915050606083015184820360608601526122118282612154565b9150506080830151848203608086015261222b8282612154565b91505060a083015161224060a0860182612197565b5060c083015184820360c08601526122588282612154565b9150508091505092915050565b600061227183836121a6565b905092915050565b6000602082019050919050565b6000612291826120c8565b61229b81856120d3565b9350836020820285016122ad856120e4565b8060005b858110156122e957848403895281516122ca8582612265565b94506122d583612279565b925060208a019950506001810190506122b1565b50829750879550505050505092915050565b600060208201905081810360008301526123158184612286565b905092915050565b6000604051905090565b600080fd5b600080fd5b600080fd5b600080fd5b7f4e487b7100000000000000000000000000000000000000000000000000000000600052604160045260246000fd5b61237382612143565b810181811067ffffffffffffffff821117156123925761239161233b565b5b80604052505050565b60006123a561231d565b90506123b1828261236a565b919050565b600067ffffffffffffffff8211156123d1576123d061233b565b5b6123da82612143565b9050602081019050919050565b82818337600083830152505050565b6000612409612404846123b6565b61239b565b90508281526020810184848401111561242557612424612336565b5b6124308482856123e7565b509392505050565b600082601f83011261244d5761244c612331565b5b813561245d8482602086016123f6565b91505092915050565b61246f8161218d565b811461247a57600080fd5b50565b60008135905061248c81612466565b92915050565b600080600080600080600060e0888a0312156124b1576124b0612327565b5b600088013567ffffffffffffffff8111156124cf576124ce61232c565b5b6124db8a828b01612438565b975050602088013567ffffffffffffffff8111156124fc576124fb61232c565b5b6125088a828b01612438565b965050604088013567ffffffffffffffff8111156125295761252861232c565b5b6125358a828b01612438565b955050606088013567ffffffffffffffff8111156125565761255561232c565b5b6125628a828b01612438565b945050608088013567ffffffffffffffff8111156125835761258261232c565b5b61258f8a828b01612438565b93505060a06125a08a828b0161247d565b92505060c088013567ffffffffffffffff8111156125c1576125c061232c565b5b6125cd8a828b01612438565b91505092959891949750929550565b6000602082840312156125f2576125f1612327565b5b600082013567ffffffffffffffff8111156126105761260f61232c565b5b61261c84828501612438565b91505092915050565b600082825260208201905092915050565b6000612641826120f4565b61264b8185612625565b935061265b818560208601612110565b61266481612143565b840191505092915050565b6126788161218d565b82525050565b600060e0820190508181036000830152612698818a612636565b905081810360208301526126ac8189612636565b905081810360408301526126c08188612636565b905081810360608301526126d48187612636565b905081810360808301526126e88186612636565b90506126f760a083018561266f565b81810360c08301526127098184612636565b905098975050505050505050565b60006020828403121561272d5761272c612327565b5b600061273b8482850161247d565b91505092915050565b7f4e487b7100000000000000000000000000000000000000000000000000000000600052602260045260246000fd5b6000600282049050600182168061278b57607f821691505b6020821081141561279f5761279e612744565b5b50919050565b600081905092915050565b60006127bb826120f4565b6127c581856127a5565b93506127d5818560208601612110565b80840191505092915050565b60006127ed82846127b0565b915081905092915050565b7f4e487b7100000000000000000000000000000000000000000000000000000000600052603260045260246000fd5b60008190508160005260206000209050919050565b6000815461284981612773565b61285381866127a5565b9450600182166000811461286e576001811461287f576128b2565b60ff198316865281860193506128b2565b61288885612827565b60005b838110156128aa5781548189015260018201915060208101905061288b565b838801955050505b50505092915050565b60006128c7828461283c565b915081905092915050565b7f4e487b7100000000000000000000000000000000000000000000000000000000600052601160045260246000fd5b600061290c8261218d565b91507fffffffffffffffffffffffffffffffffffffffffffffffffffffffffffffffff82141561293f5761293e6128d2565b5b600182019050919050565b7f4865616c7468205265636f7264206e6f7420666f756e64000000000000000000600082015250565b6000612980601783612625565b915061298b8261294a565b602082019050919050565b600060208201905081810360008301526129af81612973565b9050919050565b60006129c18261218d565b91506129cc8361218d565b9250828210156129df576129de6128d2565b5b828203905092915050565b7f4e487b7100000000000000000000000000000000000000000000000000000000600052603160045260246000fdfea26469706673582212209e13614269ee72c73f0c46be7725adb1f35cb579789ec445bfef415ee565345e64736f6c634300080b0033",
  "linkReferences": {},
  "deployedLinkReferences": {}
}